{
  "contractName": "OnlineMarketplace",
  "abi": [
    {
      "constant": true,
      "inputs": [
        {
          "name": "",
          "type": "address"
        }
      ],
      "name": "storeOwners",
      "outputs": [
        {
          "name": "",
          "type": "bool"
        }
      ],
      "payable": false,
      "stateMutability": "view",
      "type": "function"
    },
    {
      "constant": true,
      "inputs": [
        {
          "name": "",
          "type": "address"
        }
      ],
      "name": "administrators",
      "outputs": [
        {
          "name": "",
          "type": "bool"
        }
      ],
      "payable": false,
      "stateMutability": "view",
      "type": "function"
    },
    {
      "inputs": [],
      "payable": false,
      "stateMutability": "nonpayable",
      "type": "constructor"
    },
    {
      "anonymous": false,
      "inputs": [
        {
          "indexed": false,
          "name": "_address",
          "type": "address"
        }
      ],
      "name": "AddedAdministrator",
      "type": "event"
    },
    {
      "anonymous": false,
      "inputs": [
        {
          "indexed": false,
          "name": "_address",
          "type": "address"
        }
      ],
      "name": "RemovedAdministrator",
      "type": "event"
    },
    {
      "anonymous": false,
      "inputs": [
        {
          "indexed": false,
          "name": "_address",
          "type": "address"
        }
      ],
      "name": "AddedStoreOwner",
      "type": "event"
    },
    {
      "anonymous": false,
      "inputs": [
        {
          "indexed": false,
          "name": "_address",
          "type": "address"
        }
      ],
      "name": "RemovedStoreOwner",
      "type": "event"
    },
    {
      "constant": false,
      "inputs": [
        {
          "name": "_address",
          "type": "address"
        }
      ],
      "name": "addAdministrator",
      "outputs": [
        {
          "name": "",
          "type": "address"
        }
      ],
      "payable": false,
      "stateMutability": "nonpayable",
      "type": "function"
    },
    {
      "constant": false,
      "inputs": [
        {
          "name": "_address",
          "type": "address"
        }
      ],
      "name": "removeAdministrator",
      "outputs": [
        {
          "name": "",
          "type": "address"
        }
      ],
      "payable": false,
      "stateMutability": "nonpayable",
      "type": "function"
    },
    {
      "constant": false,
      "inputs": [
        {
          "name": "_address",
          "type": "address"
        }
      ],
      "name": "addStoreOwner",
      "outputs": [
        {
          "name": "",
          "type": "address"
        }
      ],
      "payable": false,
      "stateMutability": "nonpayable",
      "type": "function"
    },
    {
      "constant": false,
      "inputs": [
        {
          "name": "_address",
          "type": "address"
        }
      ],
      "name": "removeStoreOwner",
      "outputs": [
        {
          "name": "",
          "type": "address"
        }
      ],
      "payable": false,
      "stateMutability": "nonpayable",
      "type": "function"
    }
  ],
  "bytecode": "0x608060405234801561001057600080fd5b5060016000803373ffffffffffffffffffffffffffffffffffffffff1673ffffffffffffffffffffffffffffffffffffffff16815260200190815260200160002060006101000a81548160ff021916908315150217905550610818806100776000396000f300608060405260043610610078576000357c0100000000000000000000000000000000000000000000000000000000900463ffffffff168063057cc2a11461007d5780636174fdd1146100d857806368fa81341461015b57806376be1585146101de5780639adeb5f114610239578063c9991176146102bc575b600080fd5b34801561008957600080fd5b506100be600480360381019080803573ffffffffffffffffffffffffffffffffffffffff16906020019092919050505061033f565b604051808215151515815260200191505060405180910390f35b3480156100e457600080fd5b50610119600480360381019080803573ffffffffffffffffffffffffffffffffffffffff16906020019092919050505061035f565b604051808273ffffffffffffffffffffffffffffffffffffffff1673ffffffffffffffffffffffffffffffffffffffff16815260200191505060405180910390f35b34801561016757600080fd5b5061019c600480360381019080803573ffffffffffffffffffffffffffffffffffffffff16906020019092919050505061047b565b604051808273ffffffffffffffffffffffffffffffffffffffff1673ffffffffffffffffffffffffffffffffffffffff16815260200191505060405180910390f35b3480156101ea57600080fd5b5061021f600480360381019080803573ffffffffffffffffffffffffffffffffffffffff169060200190929190505050610596565b604051808215151515815260200191505060405180910390f35b34801561024557600080fd5b5061027a600480360381019080803573ffffffffffffffffffffffffffffffffffffffff1690602001909291905050506105b6565b604051808273ffffffffffffffffffffffffffffffffffffffff1673ffffffffffffffffffffffffffffffffffffffff16815260200191505060405180910390f35b3480156102c857600080fd5b506102fd600480360381019080803573ffffffffffffffffffffffffffffffffffffffff1690602001909291905050506106d1565b604051808273ffffffffffffffffffffffffffffffffffffffff1673ffffffffffffffffffffffffffffffffffffffff16815260200191505060405180910390f35b60016020528060005260406000206000915054906101000a900460ff1681565b60008060003373ffffffffffffffffffffffffffffffffffffffff1673ffffffffffffffffffffffffffffffffffffffff16815260200190815260200160002060009054906101000a900460ff1615156103b857600080fd5b6000600160008473ffffffffffffffffffffffffffffffffffffffff1673ffffffffffffffffffffffffffffffffffffffff16815260200190815260200160002060006101000a81548160ff0219169083151502179055507fbfbb630e46683b50169e969e5da0beab37d63ec4c1abd0ace04afbc25c57704782604051808273ffffffffffffffffffffffffffffffffffffffff1673ffffffffffffffffffffffffffffffffffffffff16815260200191505060405180910390a1819050919050565b60008060003373ffffffffffffffffffffffffffffffffffffffff1673ffffffffffffffffffffffffffffffffffffffff16815260200190815260200160002060009054906101000a900460ff1615156104d457600080fd5b60008060008473ffffffffffffffffffffffffffffffffffffffff1673ffffffffffffffffffffffffffffffffffffffff16815260200190815260200160002060006101000a81548160ff0219169083151502179055507f7b309bf0232684e703b0a791653cc857835761a0365ccade0e2aa66ef02ca53082604051808273ffffffffffffffffffffffffffffffffffffffff1673ffffffffffffffffffffffffffffffffffffffff16815260200191505060405180910390a1819050919050565b60006020528060005260406000206000915054906101000a900460ff1681565b60008060003373ffffffffffffffffffffffffffffffffffffffff1673ffffffffffffffffffffffffffffffffffffffff16815260200190815260200160002060009054906101000a900460ff16151561060f57600080fd5b60018060008473ffffffffffffffffffffffffffffffffffffffff1673ffffffffffffffffffffffffffffffffffffffff16815260200190815260200160002060006101000a81548160ff0219169083151502179055507fc6620235f05501774097a4948cc91c00fabc4b6f5845cf4656688305a27ccbf282604051808273ffffffffffffffffffffffffffffffffffffffff1673ffffffffffffffffffffffffffffffffffffffff16815260200191505060405180910390a1819050919050565b60008060003373ffffffffffffffffffffffffffffffffffffffff1673ffffffffffffffffffffffffffffffffffffffff16815260200190815260200160002060009054906101000a900460ff16151561072a57600080fd5b60016000808473ffffffffffffffffffffffffffffffffffffffff1673ffffffffffffffffffffffffffffffffffffffff16815260200190815260200160002060006101000a81548160ff0219169083151502179055507f1d37cb7b1c6fd2a757acce811a604fac9c4a3d2e453faff6a1358e126ba8d2dc82604051808273ffffffffffffffffffffffffffffffffffffffff1673ffffffffffffffffffffffffffffffffffffffff16815260200191505060405180910390a18190509190505600a165627a7a72305820c7f34e39bb6f0385e42ca2d29fb143aec0fa21c08e6455f78e4ffa1ee5a934d20029",
  "source": "pragma solidity ^0.4.23;\n\ncontract OnlineMarketplace {\n\n  //============================================================================\n  // VARIABLES\n\n  // the online marketplace administrators\n  mapping(address => bool) public administrators;\n\n  // the online marketplace's storeowners\n  mapping(address => bool) public storeOwners;\n\n\n  //============================================================================\n  // EVENTS\n\n  event AddedAdministrator(address _address);\n  event RemovedAdministrator(address _address);\n  event AddedStoreOwner(address _address);\n  event RemovedStoreOwner(address _address);\n\n\n  //============================================================================\n  // MODIFIERS\n\n  modifier isAdministrator() { require(administrators[msg.sender]); _; }\n  modifier isAdministratorAddress(address _address) { require(administrators[_address]); _; }\n\n  modifier isStoreOwner() { require(storeOwners[msg.sender]); _; }\n  modifier isStoreOwnerAddress(address _address) { require(storeOwners[_address]); _; }\n\n\n  //============================================================================\n  // CONSTRUCTOR\n\n  constructor() public {\n    // owner is an admin\n    administrators[msg.sender] = true;\n  }\n\n\n  //============================================================================\n  // FUNCTIONS\n\n  /**\n   */\n  function addAdministrator(address _address)\n  public\n  isAdministrator\n  returns (address)\n  {\n    administrators[_address] = true;\n    emit AddedAdministrator(_address);\n    return _address;\n  }\n\n  /**\n   */\n  function removeAdministrator(address _address)\n  public\n  isAdministrator\n  returns (address)\n  {\n    administrators[_address] = false;\n    emit RemovedAdministrator(_address);\n    return _address;\n  }\n\n  /**\n   */\n  function addStoreOwner(address _address)\n  public\n  isAdministrator\n  returns (address)\n  {\n    storeOwners[_address] = true;\n    emit AddedStoreOwner(_address);\n    return _address;\n  }\n\n  /**\n   */\n  function removeStoreOwner(address _address)\n  public\n  isAdministrator\n  returns (address)\n  {\n    storeOwners[_address] = false;\n    // extra stuff ?\n    emit RemovedStoreOwner(_address);\n    return _address;\n  }\n\n}\n",
  "sourcePath": "/Users/raphael/Documents/PersonalProjects/Consensys Academy/code/final_project/contracts/OnlineMarketplace.sol",
  "compiler": {
    "name": "solc",
    "version": "0.4.24+commit.e67f0147.Emscripten.clang"
  },
  "schemaVersion": "2.0.1",
  "updatedAt": "2018-08-27T06:53:51.030Z"
}