{
  "contractName": "StoreOwner",
  "abi": [
    {
      "constant": true,
      "inputs": [
        {
          "name": "",
          "type": "address"
        }
      ],
      "name": "stores",
      "outputs": [
        {
          "name": "",
          "type": "bool"
        }
      ],
      "payable": false,
      "stateMutability": "view",
      "type": "function"
    },
    {
      "anonymous": false,
      "inputs": [
        {
          "indexed": true,
          "name": "_storeOwnerAddress",
          "type": "address"
        },
        {
          "indexed": false,
          "name": "_storeAddress",
          "type": "address"
        }
      ],
      "name": "AddedStore",
      "type": "event"
    },
    {
      "anonymous": false,
      "inputs": [
        {
          "indexed": true,
          "name": "_storeOwnerAddress",
          "type": "address"
        },
        {
          "indexed": false,
          "name": "_storeAddress",
          "type": "address"
        }
      ],
      "name": "RemovedStore",
      "type": "event"
    },
    {
      "constant": false,
      "inputs": [],
      "name": "addStore",
      "outputs": [
        {
          "name": "",
          "type": "address"
        }
      ],
      "payable": false,
      "stateMutability": "nonpayable",
      "type": "function"
    },
    {
      "constant": false,
      "inputs": [
        {
          "name": "_storeAddress",
          "type": "address"
        }
      ],
      "name": "removeStore",
      "outputs": [
        {
          "name": "",
          "type": "bool"
        }
      ],
      "payable": false,
      "stateMutability": "nonpayable",
      "type": "function"
    }
  ],
  "bytecode": "0x608060405234801561001057600080fd5b50610f89806100206000396000f300608060405260043610610057576000357c0100000000000000000000000000000000000000000000000000000000900463ffffffff168063621df5341461005c5780638dbe1a17146100b7578063c439045c14610112575b600080fd5b34801561006857600080fd5b5061009d600480360381019080803573ffffffffffffffffffffffffffffffffffffffff169060200190929190505050610169565b604051808215151515815260200191505060405180910390f35b3480156100c357600080fd5b506100f8600480360381019080803573ffffffffffffffffffffffffffffffffffffffff169060200190929190505050610189565b604051808215151515815260200191505060405180910390f35b34801561011e57600080fd5b50610127610264565b604051808273ffffffffffffffffffffffffffffffffffffffff1673ffffffffffffffffffffffffffffffffffffffff16815260200191505060405180910390f35b60006020528060005260406000206000915054906101000a900460ff1681565b6000806000808473ffffffffffffffffffffffffffffffffffffffff1673ffffffffffffffffffffffffffffffffffffffff16815260200190815260200160002060006101000a81548160ff0219169083151502179055503373ffffffffffffffffffffffffffffffffffffffff167f970ee5ea4144d8f33cb403620d89210ba596db62d890dc8e335ac462912988b883604051808273ffffffffffffffffffffffffffffffffffffffff1673ffffffffffffffffffffffffffffffffffffffff16815260200191505060405180910390a260019050919050565b60008061026f610366565b604051809103906000f08015801561028b573d6000803e3d6000fd5b50905060016000808373ffffffffffffffffffffffffffffffffffffffff1673ffffffffffffffffffffffffffffffffffffffff16815260200190815260200160002060006101000a81548160ff0219169083151502179055503373ffffffffffffffffffffffffffffffffffffffff167f64ef2398ced412398f5702d2296ce330a41dc289b1fc45ab3e746395a213eedf82604051808273ffffffffffffffffffffffffffffffffffffffff1673ffffffffffffffffffffffffffffffffffffffff16815260200191505060405180910390a28091505090565b604051610be780610377833901905600608060405234801561001057600080fd5b5033600160006101000a81548173ffffffffffffffffffffffffffffffffffffffff021916908373ffffffffffffffffffffffffffffffffffffffff1602179055506001600081905550610b7e806100696000396000f30060806040526004361061008e576000357c0100000000000000000000000000000000000000000000000000000000900463ffffffff1680630a423e3a1461009357806324600fc3146100e257806352656a38146101115780635ee95cae1461016e5780637acc0b20146101b3578063818fb3e0146102115780638642269e14610268578063f1d36cbc146102a0575b600080fd5b34801561009f57600080fd5b506100c860048036038101908080359060200190929190803590602001909291905050506102ef565b604051808215151515815260200191505060405180910390f35b3480156100ee57600080fd5b506100f7610446565b604051808215151515815260200191505060405180910390f35b34801561011d57600080fd5b506101546004803603810190808035600019169060200190929190803590602001909291908035906020019092919050505061059f565b604051808215151515815260200191505060405180910390f35b34801561017a57600080fd5b5061019960048036038101908080359060200190929190505050610707565b604051808215151515815260200191505060405180910390f35b3480156101bf57600080fd5b506101de6004803603810190808035906020019092919050505061086a565b60405180858152602001846000191660001916815260200183815260200182815260200194505050505060405180910390f35b34801561021d57600080fd5b5061022661089a565b604051808273ffffffffffffffffffffffffffffffffffffffff1673ffffffffffffffffffffffffffffffffffffffff16815260200191505060405180910390f35b610286600480360381019080803590602001909291905050506108c0565b604051808215151515815260200191505060405180910390f35b3480156102ac57600080fd5b506102d560048036038101908080359060200190929190803590602001909291905050506109fb565b604051808215151515815260200191505060405180910390f35b600080600160009054906101000a900473ffffffffffffffffffffffffffffffffffffffff1673ffffffffffffffffffffffffffffffffffffffff163373ffffffffffffffffffffffffffffffffffffffff1614151561034e57600080fd5b836000600360008381526020019081526020016000206000015411151561037457600080fd5b836000811015151561038557600080fd5b60036000878152602001908152602001600020600301549250846003600088815260200190815260200160002060030181905550600160009054906101000a900473ffffffffffffffffffffffffffffffffffffffff1673ffffffffffffffffffffffffffffffffffffffff167f8df32766c036e04e90cba409920c4cd8136e657c8fbf1a1f720070b6779e77fb87858860405180848152602001838152602001828152602001935050505060405180910390a26001935050505092915050565b600080600160009054906101000a900473ffffffffffffffffffffffffffffffffffffffff1673ffffffffffffffffffffffffffffffffffffffff163373ffffffffffffffffffffffffffffffffffffffff161415156104a557600080fd5b6002549050600160009054906101000a900473ffffffffffffffffffffffffffffffffffffffff1673ffffffffffffffffffffffffffffffffffffffff166108fc6002549081150290604051600060405180830381858888f19350505050158015610514573d6000803e3d6000fd5b506000600281905550600160009054906101000a900473ffffffffffffffffffffffffffffffffffffffff1673ffffffffffffffffffffffffffffffffffffffff167fc6cb42106eeaea8b08642110d6ed10e8a35cab99884c5769de3870e8c992120d82600254604051808381526020018281526020019250505060405180910390a2600191505090565b6000600160009054906101000a900473ffffffffffffffffffffffffffffffffffffffff1673ffffffffffffffffffffffffffffffffffffffff163373ffffffffffffffffffffffffffffffffffffffff161415156105fd57600080fd5b60806040519081016040528060005481526020018560001916815260200184815260200183815250600360008054815260200190815260200160002060008201518160000155602082015181600101906000191690556040820151816002015560608201518160030155905050600160009054906101000a900473ffffffffffffffffffffffffffffffffffffffff1673ffffffffffffffffffffffffffffffffffffffff167fdf6e2c90368131c0ebe647bc4a457b8999bfdf2a59c08394d3c7397fc0dec173600054858560405180848152602001838152602001828152602001935050505060405180910390a260016000808282540192505081905550600190509392505050565b600080600160009054906101000a900473ffffffffffffffffffffffffffffffffffffffff1673ffffffffffffffffffffffffffffffffffffffff163373ffffffffffffffffffffffffffffffffffffffff1614151561076657600080fd5b826000600360008381526020019081526020016000206000015411151561078c57600080fd5b600360008581526020019081526020016000209150600360008581526020019081526020016000206000808201600090556001820160009055600282016000905560038201600090555050600160009054906101000a900473ffffffffffffffffffffffffffffffffffffffff1673ffffffffffffffffffffffffffffffffffffffff167ff13d4e399e20ccc1a4498d88fe019fc8c53c2ce4629959a0e674d19a6e9d58f4858460020154856003015460405180848152602001838152602001828152602001935050505060405180910390a2600192505050919050565b60036020528060005260406000206000915090508060000154908060010154908060020154908060030154905084565b600160009054906101000a900473ffffffffffffffffffffffffffffffffffffffff1681565b600081600060036000838152602001908152602001600020600001541115156108e857600080fd5b600360008481526020019081526020016000206002015480341015151561090e57600080fd5b600160036000868152602001908152602001600020600301600082825403925050819055506003600085815260200190815260200160002060020154600260008282540192505081905550600160009054906101000a900473ffffffffffffffffffffffffffffffffffffffff1673ffffffffffffffffffffffffffffffffffffffff167f4deccbef4aa9fbb3231f6938ca013d4cfc3b5a01101983600a8f239b0b7be9f1856003600088815260200190815260200160002060020154600160405180848152602001838152602001828152602001935050505060405180910390a2600192505050919050565b600080600160009054906101000a900473ffffffffffffffffffffffffffffffffffffffff1673ffffffffffffffffffffffffffffffffffffffff163373ffffffffffffffffffffffffffffffffffffffff16141515610a5a57600080fd5b8360006003600083815260200190815260200160002060000154111515610a8057600080fd5b8360008110151515610a9157600080fd5b60036000878152602001908152602001600020600201549250846003600088815260200190815260200160002060020181905550600160009054906101000a900473ffffffffffffffffffffffffffffffffffffffff1673ffffffffffffffffffffffffffffffffffffffff167f5c07b81b82536c6bf178c31c558150e5e8805424e7fd881e780ad0d4a9e7311b87858860405180848152602001838152602001828152602001935050505060405180910390a260019350505050929150505600a165627a7a72305820d8fcb6cc482a0a61d63f3553c6b6e070f282b25f5598cd301f05472f4c04a5330029a165627a7a72305820673e82c997983852dbe243f8c6dd99c7bd089e38850520483439481256ed1da70029",
  "source": "pragma solidity ^0.4.23;\n\nimport \"./Store.sol\";\n\ncontract StoreOwner {\n\n  //============================================================================\n  // VARIABLES\n\n  mapping(address => bool) public stores;\n\n\n  //============================================================================\n  // EVENTS\n\n  event AddedStore(address indexed _storeOwnerAddress, address _storeAddress);\n  event RemovedStore(address indexed _storeOwnerAddress, address _storeAddress);\n\n\n  //============================================================================\n  // FUNCTIONS\n\n  /**\n   * TODO\n   */\n  function addStore()\n  public\n  returns(address)\n  {\n    Store store = new Store();\n    stores[store] = true;\n    emit AddedStore(msg.sender, store);\n    return store;\n  }\n\n  /**\n   * TODO\n   */\n  function removeStore(address _storeAddress)\n  public\n  returns(bool)\n  {\n    stores[_storeAddress] = false;\n    emit RemovedStore(msg.sender, _storeAddress);\n    return true;\n  }\n}\n",
  "sourcePath": "/Users/raphael/Documents/PersonalProjects/Consensys Academy/code/final_project/contracts/StoreOwner.sol",
  "compiler": {
    "name": "solc",
    "version": "0.4.24+commit.e67f0147.Emscripten.clang"
  },
  "schemaVersion": "2.0.1",
  "updatedAt": "2018-08-27T13:22:22.754Z"
}