{
  "contractName": "StoreOwner",
  "abi": [
    {
      "constant": true,
      "inputs": [
        {
          "name": "",
          "type": "address"
        }
      ],
      "name": "stores",
      "outputs": [
        {
          "name": "",
          "type": "bool"
        }
      ],
      "payable": false,
      "stateMutability": "view",
      "type": "function"
    },
    {
      "constant": true,
      "inputs": [],
      "name": "owner",
      "outputs": [
        {
          "name": "",
          "type": "address"
        }
      ],
      "payable": false,
      "stateMutability": "view",
      "type": "function"
    },
    {
      "constant": false,
      "inputs": [
        {
          "name": "newOwner",
          "type": "address"
        }
      ],
      "name": "transferOwnership",
      "outputs": [],
      "payable": false,
      "stateMutability": "nonpayable",
      "type": "function"
    },
    {
      "anonymous": false,
      "inputs": [
        {
          "indexed": false,
          "name": "_storeOwnerAddress",
          "type": "address"
        },
        {
          "indexed": false,
          "name": "_storeContractAddress",
          "type": "address"
        }
      ],
      "name": "AddedStore",
      "type": "event"
    },
    {
      "anonymous": false,
      "inputs": [
        {
          "indexed": false,
          "name": "_storeOwnerAddress",
          "type": "address"
        },
        {
          "indexed": false,
          "name": "_storeContractAddress",
          "type": "address"
        }
      ],
      "name": "RemovedStore",
      "type": "event"
    },
    {
      "constant": false,
      "inputs": [],
      "name": "addStore",
      "outputs": [
        {
          "name": "",
          "type": "address"
        }
      ],
      "payable": false,
      "stateMutability": "nonpayable",
      "type": "function"
    },
    {
      "constant": false,
      "inputs": [
        {
          "name": "_storeAddress",
          "type": "address"
        }
      ],
      "name": "removeStore",
      "outputs": [
        {
          "name": "",
          "type": "bool"
        }
      ],
      "payable": false,
      "stateMutability": "nonpayable",
      "type": "function"
    }
  ],
  "bytecode": "0x6080604052336000806101000a81548173ffffffffffffffffffffffffffffffffffffffff021916908373ffffffffffffffffffffffffffffffffffffffff1602179055506114a1806100536000396000f30060806040526004361061006d576000357c0100000000000000000000000000000000000000000000000000000000900463ffffffff168063621df534146100725780638da5cb5b146100cd5780638dbe1a1714610124578063c439045c1461017f578063f2fde38b146101d6575b600080fd5b34801561007e57600080fd5b506100b3600480360381019080803573ffffffffffffffffffffffffffffffffffffffff169060200190929190505050610219565b604051808215151515815260200191505060405180910390f35b3480156100d957600080fd5b506100e2610239565b604051808273ffffffffffffffffffffffffffffffffffffffff1673ffffffffffffffffffffffffffffffffffffffff16815260200191505060405180910390f35b34801561013057600080fd5b50610165600480360381019080803573ffffffffffffffffffffffffffffffffffffffff16906020019092919050505061025e565b604051808215151515815260200191505060405180910390f35b34801561018b57600080fd5b506101946103b0565b604051808273ffffffffffffffffffffffffffffffffffffffff1673ffffffffffffffffffffffffffffffffffffffff16815260200191505060405180910390f35b3480156101e257600080fd5b50610217600480360381019080803573ffffffffffffffffffffffffffffffffffffffff1690602001909291905050506105fb565b005b60016020528060005260406000206000915054906101000a900460ff1681565b6000809054906101000a900473ffffffffffffffffffffffffffffffffffffffff1681565b60008060009054906101000a900473ffffffffffffffffffffffffffffffffffffffff1673ffffffffffffffffffffffffffffffffffffffff163373ffffffffffffffffffffffffffffffffffffffff161415156102b857fe5b6000600160008473ffffffffffffffffffffffffffffffffffffffff1673ffffffffffffffffffffffffffffffffffffffff16815260200190815260200160002060006101000a81548160ff0219169083151502179055507f970ee5ea4144d8f33cb403620d89210ba596db62d890dc8e335ac462912988b83383604051808373ffffffffffffffffffffffffffffffffffffffff1673ffffffffffffffffffffffffffffffffffffffff1681526020018273ffffffffffffffffffffffffffffffffffffffff1673ffffffffffffffffffffffffffffffffffffffff1681526020019250505060405180910390a160019050919050565b6000806000809054906101000a900473ffffffffffffffffffffffffffffffffffffffff1673ffffffffffffffffffffffffffffffffffffffff163373ffffffffffffffffffffffffffffffffffffffff1614151561040b57fe5b6104136106cd565b604051809103906000f08015801561042f573d6000803e3d6000fd5b5090508073ffffffffffffffffffffffffffffffffffffffff1663f2fde38b6000809054906101000a900473ffffffffffffffffffffffffffffffffffffffff166040518263ffffffff167c0100000000000000000000000000000000000000000000000000000000028152600401808273ffffffffffffffffffffffffffffffffffffffff1673ffffffffffffffffffffffffffffffffffffffff168152602001915050600060405180830381600087803b1580156104ee57600080fd5b505af1158015610502573d6000803e3d6000fd5b5050505060018060008373ffffffffffffffffffffffffffffffffffffffff1673ffffffffffffffffffffffffffffffffffffffff16815260200190815260200160002060006101000a81548160ff0219169083151502179055507f64ef2398ced412398f5702d2296ce330a41dc289b1fc45ab3e746395a213eedf3382604051808373ffffffffffffffffffffffffffffffffffffffff1673ffffffffffffffffffffffffffffffffffffffff1681526020018273ffffffffffffffffffffffffffffffffffffffff1673ffffffffffffffffffffffffffffffffffffffff1681526020019250505060405180910390a18091505090565b6000809054906101000a900473ffffffffffffffffffffffffffffffffffffffff1673ffffffffffffffffffffffffffffffffffffffff163373ffffffffffffffffffffffffffffffffffffffff1614151561065357fe5b600073ffffffffffffffffffffffffffffffffffffffff168173ffffffffffffffffffffffffffffffffffffffff161415156106ca57806000806101000a81548173ffffffffffffffffffffffffffffffffffffffff021916908373ffffffffffffffffffffffffffffffffffffffff1602179055505b50565b604051610d98806106de833901905600608060405234801561001057600080fd5b50336000806101000a81548173ffffffffffffffffffffffffffffffffffffffff021916908373ffffffffffffffffffffffffffffffffffffffff16021790555060018081905550610d31806100676000396000f300608060405260043610610099576000357c0100000000000000000000000000000000000000000000000000000000900463ffffffff1680630a423e3a1461009e57806324600fc3146100ed57806352656a381461011c5780635ee95cae146101795780637acc0b20146101be5780638642269e1461021c5780638da5cb5b14610254578063f1d36cbc146102ab578063f2fde38b146102fa575b600080fd5b3480156100aa57600080fd5b506100d3600480360381019080803590602001909291908035906020019092919050505061033d565b604051808215151515815260200191505060405180910390f35b3480156100f957600080fd5b506101026104ac565b604051808215151515815260200191505060405180910390f35b34801561012857600080fd5b5061015f6004803603810190808035600019169060200190929190803590602001909291908035906020019092919050505061061c565b604051808215151515815260200191505060405180910390f35b34801561018557600080fd5b506101a46004803603810190808035906020019092919050505061079d565b604051808215151515815260200191505060405180910390f35b3480156101ca57600080fd5b506101e960048036038101908080359060200190929190505050610918565b60405180858152602001846000191660001916815260200183815260200182815260200194505050505060405180910390f35b61023a60048036038101908080359060200190929190505050610948565b604051808215151515815260200191505060405180910390f35b34801561026057600080fd5b50610269610a9f565b604051808273ffffffffffffffffffffffffffffffffffffffff1673ffffffffffffffffffffffffffffffffffffffff16815260200191505060405180910390f35b3480156102b757600080fd5b506102e06004803603810190808035906020019092919080359060200190929190505050610ac4565b604051808215151515815260200191505060405180910390f35b34801561030657600080fd5b5061033b600480360381019080803573ffffffffffffffffffffffffffffffffffffffff169060200190929190505050610c33565b005b6000806000809054906101000a900473ffffffffffffffffffffffffffffffffffffffff1673ffffffffffffffffffffffffffffffffffffffff163373ffffffffffffffffffffffffffffffffffffffff1614151561039857fe5b83600060036000838152602001908152602001600020600001541115156103be57600080fd5b83600081101515156103cf57600080fd5b600360008781526020019081526020016000206003015492508460036000888152602001908152602001600020600301819055507f8df32766c036e04e90cba409920c4cd8136e657c8fbf1a1f720070b6779e77fb6000809054906101000a900473ffffffffffffffffffffffffffffffffffffffff16878588604051808573ffffffffffffffffffffffffffffffffffffffff1673ffffffffffffffffffffffffffffffffffffffff16815260200184815260200183815260200182815260200194505050505060405180910390a16001935050505092915050565b6000806000809054906101000a900473ffffffffffffffffffffffffffffffffffffffff1673ffffffffffffffffffffffffffffffffffffffff163373ffffffffffffffffffffffffffffffffffffffff1614151561050757fe5b60025490506000809054906101000a900473ffffffffffffffffffffffffffffffffffffffff1673ffffffffffffffffffffffffffffffffffffffff166108fc6002549081150290604051600060405180830381858888f19350505050158015610575573d6000803e3d6000fd5b5060006002819055507fc6cb42106eeaea8b08642110d6ed10e8a35cab99884c5769de3870e8c992120d6000809054906101000a900473ffffffffffffffffffffffffffffffffffffffff1682600254604051808473ffffffffffffffffffffffffffffffffffffffff1673ffffffffffffffffffffffffffffffffffffffff168152602001838152602001828152602001935050505060405180910390a1600191505090565b60008060009054906101000a900473ffffffffffffffffffffffffffffffffffffffff1673ffffffffffffffffffffffffffffffffffffffff163373ffffffffffffffffffffffffffffffffffffffff1614151561067657fe5b60806040519081016040528060015481526020018560001916815260200184815260200183815250600360006001548152602001908152602001600020600082015181600001556020820151816001019060001916905560408201518160020155606082015181600301559050507fdf6e2c90368131c0ebe647bc4a457b8999bfdf2a59c08394d3c7397fc0dec1736000809054906101000a900473ffffffffffffffffffffffffffffffffffffffff166001548585604051808573ffffffffffffffffffffffffffffffffffffffff1673ffffffffffffffffffffffffffffffffffffffff16815260200184815260200183815260200182815260200194505050505060405180910390a160018060008282540192505081905550600190509392505050565b6000806000809054906101000a900473ffffffffffffffffffffffffffffffffffffffff1673ffffffffffffffffffffffffffffffffffffffff163373ffffffffffffffffffffffffffffffffffffffff161415156107f857fe5b826000600360008381526020019081526020016000206000015411151561081e57600080fd5b6003600085815260200190815260200160002091506003600085815260200190815260200160002060008082016000905560018201600090556002820160009055600382016000905550507ff13d4e399e20ccc1a4498d88fe019fc8c53c2ce4629959a0e674d19a6e9d58f46000809054906101000a900473ffffffffffffffffffffffffffffffffffffffff168584600201548560030154604051808573ffffffffffffffffffffffffffffffffffffffff1673ffffffffffffffffffffffffffffffffffffffff16815260200184815260200183815260200182815260200194505050505060405180910390a1600192505050919050565b60036020528060005260406000206000915090508060000154908060010154908060020154908060030154905084565b6000816000600360008381526020019081526020016000206000015411151561097057600080fd5b600360008481526020019081526020016000206002015480341015151561099657600080fd5b6001600360008681526020019081526020016000206003016000828254039250508190555060036000858152602001908152602001600020600201546002600082825401925050819055507f4deccbef4aa9fbb3231f6938ca013d4cfc3b5a01101983600a8f239b0b7be9f16000809054906101000a900473ffffffffffffffffffffffffffffffffffffffff168560036000888152602001908152602001600020600201546001604051808573ffffffffffffffffffffffffffffffffffffffff1673ffffffffffffffffffffffffffffffffffffffff16815260200184815260200183815260200182815260200194505050505060405180910390a1600192505050919050565b6000809054906101000a900473ffffffffffffffffffffffffffffffffffffffff1681565b6000806000809054906101000a900473ffffffffffffffffffffffffffffffffffffffff1673ffffffffffffffffffffffffffffffffffffffff163373ffffffffffffffffffffffffffffffffffffffff16141515610b1f57fe5b8360006003600083815260200190815260200160002060000154111515610b4557600080fd5b8360008110151515610b5657600080fd5b600360008781526020019081526020016000206002015492508460036000888152602001908152602001600020600201819055507f5c07b81b82536c6bf178c31c558150e5e8805424e7fd881e780ad0d4a9e7311b6000809054906101000a900473ffffffffffffffffffffffffffffffffffffffff16878588604051808573ffffffffffffffffffffffffffffffffffffffff1673ffffffffffffffffffffffffffffffffffffffff16815260200184815260200183815260200182815260200194505050505060405180910390a16001935050505092915050565b6000809054906101000a900473ffffffffffffffffffffffffffffffffffffffff1673ffffffffffffffffffffffffffffffffffffffff163373ffffffffffffffffffffffffffffffffffffffff16141515610c8b57fe5b600073ffffffffffffffffffffffffffffffffffffffff168173ffffffffffffffffffffffffffffffffffffffff16141515610d0257806000806101000a81548173ffffffffffffffffffffffffffffffffffffffff021916908373ffffffffffffffffffffffffffffffffffffffff1602179055505b505600a165627a7a7230582070712b983885cc71e1bd5852272eb5e38e2c37e55ea7aa7c89c1e767e4f091bf0029a165627a7a72305820fb07426aef666b9da7c0e913815a601b973837f61d146a36972a36c60112c99f0029",
  "source": "pragma solidity ^0.4.23;\n\nimport \"./Owned.sol\";\nimport \"./Store.sol\";\n\n/**\n * @title Store Owner\n * Business logic to help a store owner manage his or her stores\n*/\ncontract StoreOwner is Owned {\n\n  //============================================================================\n  // VARIABLES\n\n  mapping(address => bool) public stores;\n\n\n  //============================================================================\n  // EVENTS\n\n  event AddedStore(address _storeOwnerAddress, address _storeContractAddress);\n  event RemovedStore(address _storeOwnerAddress, address _storeContractAddress);\n\n\n  //============================================================================\n  // FUNCTIONS\n\n  /**\n   * @dev Add a store\n   * @return the store's contract address\n   */\n  function addStore()\n  public\n  isOwner\n  returns(address)\n  {\n    Store storeContractAddress = new Store();\n    storeContractAddress.transferOwnership(owner);\n    stores[storeContractAddress] = true;\n    emit AddedStore(msg.sender, storeContractAddress);\n    return storeContractAddress;\n  }\n\n  /**\n   * @dev Remove a store\n   * @param _storeAddress the contract address of the store to be removed\n   * @return true if successful\n   */\n  function removeStore(address _storeAddress)\n  public\n  isOwner\n  returns(bool)\n  {\n    stores[_storeAddress] = false;\n    emit RemovedStore(msg.sender, _storeAddress);\n    return true;\n  }\n\n}\n",
  "sourcePath": "/Users/raphael/Documents/PersonalProjects/Consensys Academy/code/final_project/contracts/StoreOwner.sol",
  "compiler": {
    "name": "solc",
    "version": "0.4.24+commit.e67f0147.Emscripten.clang"
  },
  "schemaVersion": "2.0.1",
  "updatedAt": "2018-08-28T06:01:18.780Z"
}